:100000000C9434000C9488000C9446000C94460028
:100010000C9446000C9446000C9446000C94460048
:100020000C9446000C9446000C9446000C94460038
:100030000C9446000C9446000C9446000C94460028
:100040000C9446000C9446000C9446000C94460018
:100050000C9446000C9446000C9446000C94460008
:100060000C9446000C94460011241FBECFEFD8E03C
:10007000DEBFCDBF11E0A0E0B1E001C01D92A13014
:10008000B107E1F70E949D000C94C4000C9400009D
:10009000FC01208181E090E0062E01C0880F0A94C7
:1000A000EAF7442319F0282B2083089580958223B2
:1000B00080830895462F883020F4682F8BE290E0EB
:1000C00006C068EF680F663020F485E290E00C947B
:1000D00048000895982F94609BB982FF02C061E0A8
:1000E00001C060E088E00C945A008FEF0E946A0023
:1000F0008FE59AEE0197F1F700C0000080E00E94C2
:100100006A008FE59AEE0197F1F700C000000895AC
:100110001F920F920FB60F9211248F939F9390917D
:10012000000181E0911180E0809300019F918F9107
:100130000F900FBE0F901F9018958FEF8AB984B95A
:1001400041E062E08BE290E00E94480090916900FB
:10015000916090936900E89A1092000178948091E0
:100160000001882371F0CF5F8C2F0E946A002FEF6F
:1001700086E791E0215080409040E1F700C0000008
:0C018000EECF0E947500EBCFF894FFCF8B
:00000001FF
