:100000000C9434000C9451000C9451000C94510049
:100010000C9451000C9451000C9451000C9451001C
:100020000C9451000C9451000C9451000C9451000C
:100030000C9451000C9451000C9451000C945100FC
:100040000C9451000C9451000C94B5000C94F300E6
:100050000C9451000C9451000C9451000C945100DC
:100060000C9451000C94510011241FBECFEFD8E026
:10007000DEBFCDBF11E0A0E0B1E0EEE6F3E002C0EC
:1000800005900D92AC31B107D9F712E0ACE1B1E0C7
:1000900001C01D92AA32B107E1F70E9435010C940C
:1000A000B5010C940000CF93C82F8A3019F48DE06D
:1000B0000E945300E0912202F0912302CF010196A9
:1000C00060E470E00E945B019C014091200250912D
:1000D00021028417950789F0EE0FFF1FE056FE4FAF
:1000E0008C2F90E09183808330932302209322020F
:1000F0008091C10080628093C10080E090E0CF9148
:100100000895CF93DF93CCE9D1E08881998101965E
:1001100060E470E00E945B0199838883FC01EE0F2C
:10012000FF1FE45EFE4F80819181DF91CF910895A2
:1001300010922102109220021092230210922202A9
:1001400010929D0110929C0110929F0110929E01AD
:100150001092C50087E68093C40086E08093C200B9
:1001600088E18093C100789408951F920F920FB692
:100170000F9211242F933F935F936F937F938F93ED
:100180009F93AF93BF93EF93FF93E0919E01F09104
:100190009F01CF01019660E470E00E945B01209115
:1001A0009C0130919D018217930769F02091C60050
:1001B000EE0FFF1FE45EFE4F30E03183208390930B
:1001C0009F0180939E01FF91EF91BF91AF919F910D
:1001D0008F917F916F915F913F912F910F900FBE03
:1001E0000F901F9018951F920F920FB60F92112427
:1001F0002F933F935F936F937F938F939F93AF93CF
:10020000BF93EF93FF93809120029091210201967A
:1002100060E470E00E945B01209122023091230291
:100220008217930769F0FC01EE0FFF1FE056FE4FA7
:1002300020812093C600909321028093200205C064
:100240008091C1008F7D8093C100FF91EF91BF919C
:10025000AF919F918F917F916F915F913F912F917E
:100260000F900FBE0F901F9018950E94980082E08B
:100270008AB98EE091E0909327028093260280E075
:1002800091E09093250280932402C0E285B18C27EF
:1002900085B9609126027091270281E690E00E9464
:1002A00083012FEF81EE94E0215080409040E1F7F0
:1002B00000C00000EBCF97FB072E16F4009407D088
:1002C00077FD09D00E946F0107FC05D03EF49095A0
:1002D00081959F4F0895709561957F4F0895AA1B52
:1002E000BB1B51E107C0AA1FBB1FA617B70710F021
:1002F000A61BB70B881F991F5A95A9F78095909553
:10030000BC01CD0108950F931F93CF93DF93182F56
:10031000092FEB018B8181FD03C08FEF9FEF20C080
:1003200082FF10C04E815F812C813D8142175307AF
:100330007CF4E881F9819F012F5F3F4F3983288347
:10034000108306C0E885F985812F0995892B29F747
:100350002E813F812F5F3F4F3F832E83812F902F30
:0E036000DF91CF911F910F910895F894FFCF78
:10036E0000000001000000000000810000000000FD
:0C037E000002000000005300000000001E
:00000001FF
