:100000000C9434000C9451000C9451000C94510049
:100010000C9451000C9451000C9451000C9451001C
:100020000C9451000C9451000C9451000C9451000C
:100030000C9451000C9451000C9451000C945100FC
:100040000C9451000C9451000C94D9000C9417019D
:100050000C9451000C9451000C9451000C945100DC
:100060000C9451000C94510011241FBECFEFD8E026
:10007000DEBFCDBF11E0A0E0B1E0E2EBF3E002C0F3
:1000800005900D92AC31B107D9F712E0ACE1B1E0C7
:1000900001C01D92AA32B107E1F70E9459010C94E8
:1000A000D7010C940000FC01208181E090E0062E35
:1000B00001C0880F0A94EAF7442319F0282B208303
:1000C00008958095822380830895462F883020F4F8
:1000D000682F8BE290E006C068EF680F663020F46E
:1000E00085E290E00C9453000895CF93C82F8A3096
:1000F00019F48DE00E947500E0912202F091230234
:10010000CF01019660E470E00E947D019C01409166
:100110002002509121028417950799F0EE0FFF1FDE
:10012000E056FE4F8C2F992787FD90959183808311
:1001300030932302209322028091C1008062809339
:10014000C10080E090E0CF910895CF93DF93CCE998
:10015000D1E088819981019660E470E00E947D0180
:1001600099838883FC01EE0FFF1FE45EFE4F8081C0
:100170009181DF91CF910895109221021092200277
:10018000109223021092220210929D0110929C0163
:1001900010929F0110929E011092C50087E68093F5
:1001A000C40086E08093C20088E18093C100789407
:1001B00008951F920F920FB60F9211242F933F9321
:1001C0005F936F937F938F939F93AF93BF93EF93BF
:1001D000FF93E0919E01F0919F01CF01019660E4B1
:1001E00070E00E947D0120919C0130919D01821759
:1001F000930769F02091C600EE0FFF1FE45EFE4FEB
:1002000030E03183208390939F0180939E01FF9182
:10021000EF91BF91AF919F918F917F916F915F917E
:100220003F912F910F900FBE0F901F9018951F9226
:100230000F920FB60F9211242F933F935F936F93FA
:100240007F938F939F93AF93BF93EF93FF9380918F
:10025000200290912102019660E470E00E947D01ED
:1002600020912202309123028217930769F0FC014A
:10027000EE0FFF1FE056FE4F20812093C6009093A3
:1002800021028093200205C08091C1008F7D809360
:10029000C100FF91EF91BF91AF919F918F917F919D
:1002A0006F915F913F912F910F900FBE0F901F9014
:1002B00018950E94BC008EE091E0909327028093F5
:1002C000260280E091E09093250280932402C0E210
:1002D00085B18C2785B9609126027091270281E64D
:1002E00090E00E94A5012FEF81EE94E02150804024
:1002F0009040E1F700C00000EBCF97FB072E16F40B
:10030000009407D077FD09D00E94910107FC05D029
:100310003EF4909581959F4F0895709561957F4F1C
:100320000895AA1BBB1B51E107C0AA1FBB1FA6173C
:10033000B70710F0A61BB70B881F991F5A95A9F78E
:1003400080959095BC01CD0108950F931F93CF9395
:10035000DF93182F092FEB018B8181FD03C08FEFF5
:100360009FEF20C082FF10C04E815F812C813D81B4
:10037000421753077CF4E881F9819F012F5F3F4FBB
:1003800039832883108306C0E885F985812F099574
:10039000892B29F72E813F812F5F3F4F3F832E838B
:1003A000812F902FDF91CF911F910F910895F89495
:0203B000FFCF7D
:1003B20000000001000000000000A5000000000095
:0C03C200000200000000750000000000B8
:00000001FF
