:100000000C9434000C943E000C943E000C943E0082
:100010000C943E000C943E000C943E000C943E0068
:100020000C943E000C943E000C943E000C943E0058
:100030000C943E000C943E000C943E000C943E0048
:100040000C943E000C943E000C943E000C943E0038
:100050000C943E000C943E000C943E000C943E0028
:100060000C943E000C943E0011241FBECFEFD8E04C
:10007000DEBFCDBF0E9462000C947C000C94000097
:10008000FC01208181E090E0062E01C0880F0A94D7
:10009000EAF7442319F0282B2083089580958223C2
:1000A00080830895462F883020F4682F8BE290E0FB
:1000B00006C068EF680F663020F485E290E00C948B
:1000C000400008958FEF8AB914B861E087E00E947C
:1000D00052002FEF81EE94E0215080409040E1F7F4
:1000E00000C000001BB8199B02C061E001C060E0C5
:0C00F00087E00E945200F7CFF894FFCF89
:00000001FF
