:100000000C9434000C943E000C943E000C943E0082
:100010000C943E000C943E000C943E000C943E0068
:100020000C943E000C943E000C943E000C943E0058
:100030000C943E000C943E000C943E000C943E0048
:100040000C943E000C943E000C943E000C943E0038
:100050000C943E000C943E000C943E000C943E0028
:100060000C943E000C943E0011241FBECFEFD8E04C
:10007000DEBFCDBF0E9446000C945E000C940000D1
:1000800097FF03C091958195910908958FEF8AB9E3
:100090001BB81BB82FEF30E792E021503040904062
:1000A000E1F700C000008BB92FEF30E792E021505C
:1000B00030409040E1F700C00000EBCFF894FFCF54
:00000001FF
