:100000000C943E000C945B000C945B000C945B0021
:100010000C945B000C945B000C945B000C945B00F4
:100020000C945B000C945B000C945B000C945B00E4
:100030000C945B000C945B000C945B000C945B00D4
:100040000C945B000C945B000C945B000C945B00C4
:100050000C945B000C945B000C945B000C945B00B4
:100060000C945B000C945B000C945B000C945B00A4
:100070000C945B000C945B000C945B0011241FBE7D
:10008000CFEFD0E1DEBFCDBF11E0A0E0B1E0EEE701
:10009000F1E002C005900D92AC31B107D9F711E043
:1000A000ACE1B1E001C01D92A232B107E1F70E94BC
:1000B0009E000C94BD000C940000FC01208181E0A6
:1000C00090E0062E01C0880F0A94EAF7442319F045
:1000D000282B208308958095822380830895462FBE
:1000E000883020F4682F8BE290E006C068EF680F3C
:1000F000663020F485E290E00C945D000895109243
:10010000C50081E88093C400E0ECF0E080818D7F41
:10011000808386E08093C20088E18093C1000895C7
:100120009091C00095FFFCCF8093C6000895809108
:10013000C00087FFFCCF8091C60008950E947F0019
:100140008EE091E090931F0180931E0180E091E08A
:1001500090931D0180931C012FE78AE196E02150C6
:1001600080409040E1F700C0000060911E01709156
:0E0170001F0181E60E949000EFCFF894FFCFB0
:10017E0000000001000000000000970000000000D9
:0C018E00000200000000900000000000D3
:00000001FF
