:100000000C9434000C9475000C9446000C9446003B
:100010000C9446000C9446000C9446000C94460048
:100020000C9446000C9446000C9446000C94460038
:100030000C9446000C9446000C9446000C94460028
:100040000C9446000C9446000C9446000C94460018
:100050000C9446000C9446000C9446000C94460008
:100060000C9446000C94460011241FBECFEFD8E03C
:10007000DEBFCDBF11E0A0E0B1E001C01D92A13014
:10008000B107E1F70E9486000C949C000C940000DC
:10009000FC01208181E090E0062E01C0880F0A94C7
:1000A000EAF7442319F0282B2083089580958223B2
:1000B00080830895462F883020F4682F8BE290E0EB
:1000C00006C068EF680F663020F485E290E00C947B
:1000D00048000895982F94609BB982FF02C061E0A8
:1000E00001C060E088E00C945A001F920F920FB696
:1000F0000F9211248F93809100018F5F80930001F4
:100100008F910F900FBE0F901F9018958FEF8AB9A7
:1001100084B941E062E08BE290E00E944800809167
:100120006900826080936900E89A78948091000168
:0C01300081500E946A00FACFF894FFCFC3
:00000001FF
