:100000000C9434000C943E000C943E000C943E0082
:100010000C943E000C943E000C943E000C943E0068
:100020000C943E000C943E000C943E000C943E0058
:100030000C943E000C943E000C943E000C943E0048
:100040000C943E000C943E000C943E000C943E0038
:100050000C943E000C943E000C943E000C943E0028
:100060000C943E000C943E0011241FBECFEFD8E04C
:10007000DEBFCDBF0E9462000C9483000C94000090
:10008000FC01208181E090E0062E01C0880F0A94D7
:10009000EAF7442319F0282B2083089580958223C2
:1000A00080830895462F883020F4682F8BE290E0FB
:1000B00006C068EF680F663020F485E290E00C948B
:1000C000400008958FEF8AB91BB841E050E063E02B
:1000D00070E08BE290E00E94400020E030E04FEFC3
:1000E00081EE94E0415080409040E1F700C0000074
:1000F000C90101962BB9813021E0920714F080E00C
:0A01000090E09C01ECCFF894FFCFD3
:00000001FF
