:100000000C9434000C943E000C943E000C943E0082
:100010000C943E000C943E000C943E000C943E0068
:100020000C943E000C943E000C943E000C943E0058
:100030000C943E000C943E000C943E000C943E0048
:100040000C943E000C943E000C943E000C943E0038
:100050000C943E000C943E000C943E000C943E0028
:100060000C943E000C943E0011241FBECFEFD8E04C
:10007000DEBFCDBF0E9462000C9473000C940000A0
:10008000FC01208181E090E0062E01C0880F0A94D7
:10009000EAF7442319F0282B2083089580958223C2
:1000A00080830895462F883020F4682F8BE290E0FB
:1000B00006C068EF680F663020F485E290E00C948B
:1000C000400008951BB88FE085B990E089B1891789
:1000D000E9F399B11C9B03C089B1829501C089B134
:0A00E0008F7085B9F3CFF894FFCFBD
:00000001FF
