:100000000C9434000C943E000C943E000C943E0082
:100010000C943E000C943E000C943E000C943E0068
:100020000C943E000C943E000C943E000C943E0058
:100030000C943E000C943E000C943E000C943E0048
:100040000C943E000C943E000C943E000C943E0038
:100050000C943E000C943E000C943E000C943E0028
:100060000C943E000C943E0011241FBECFEFD8E04C
:10007000DEBFCDBF0E949C000C94D7000C94000002
:10008000FC01208181E090E0062E01C0880F0A94D7
:10009000EAF7442319F0282B2083089580958223C2
:1000A00080830895462F883020F4682F8BE290E0FB
:1000B00006C068EF680F663020F485E290E00C948B
:1000C00040000895CF93C82F61E0811101C060E026
:1000D00080E00E94520061E0C11160E081E0CF91B8
:1000E0000C94520060E080E00E94520060E081E0E9
:1000F0000C945200CF93C62F813021F4862FCF91DC
:100100000C94620061E0C11101C060E082E00E94D5
:10011000520061E0C11160E083E0CF910C94520085
:10012000813011F40C94720060E082E00E94520071
:1001300060E083E00C9452008FEF8AB914B81BB8CA
:1001400080E00E94620061E082E00E947A002FEF6E
:1001500080E792E0215080409040E1F700C000002D
:100160000E94720082E00E9490008FE39CE9019758
:10017000F1F700C0000081E00E94620060E082E0D0
:100180000E947A009FEF20E782E09150204080405B
:10019000E1F700C000000E94720082E00E9490001F
:1001A0008FE39CE90197F1F700C00000C9CFF894F4
:0201B000FFCF7F
:00000001FF
