:100000000C943F000C9467000C9467000C946700FC
:100010000C9467000C9467000C9467000C946700C4
:100020000C9467000C9467000C9467000C946700B4
:100030000C9467000C9467000C9467000C946700A4
:100040000C9467000C9467000C947E000C9467007D
:100050000C945B010C94FF010C9467000C946700F6
:100060000C9467000C9467000C9467000C94670074
:100070000C9497010C943A020C946700A903112484
:100080001FBECFEFD0E1DEBFCDBF11E0A0E0B1E0F9
:10009000E0EBF9E002C005900D92A031B107D9F76D
:1000A00012E0A0E1B1E001C01D92AD36B107E1F769
:1000B00010E0CEE7D0E004C02297FE010E94D204F7
:1000C000CC37D107C9F70E9476040C94D6040C945F
:1000D000000089E292E040E855E260E070E00E94B2
:1000E0007502089564EF71E080E090E00E94C60020
:1000F00089E292E064E70E94690308951F920F92DB
:100100000FB60F9211242F933F938F939F93AF932A
:10011000BF938091140190911501A0911601B091A7
:100120001701309118010196A11DB11D232F2D5FDC
:100130002D3720F02D570196A11DB11D20931801D8
:100140008093140190931501A0931601B0931701A9
:100150008091100190911101A0911201B0911301B1
:100160000196A11DB11D8093100190931101A093E0
:100170001201B0931301BF91AF919F918F913F9165
:100180002F910F900FBE0F901F9018959B01AC01FF
:100190007FB7F8948091100190911101A091120104
:1001A000B091130166B5A89B05C06F3F19F0019689
:1001B000A11DB11D7FBFBA2FA92F982F8827860FA9
:1001C000911DA11DB11D62E0880F991FAA1FBB1FC1
:1001D0006A95D1F7BC012DC0FFB7F894809110014A
:1001E00090911101A0911201B0911301E6B5A89B65
:1001F00005C0EF3F19F00196A11DB11DFFBFBA2F39
:10020000A92F982F88278E0F911DA11DB11DE2E007
:10021000880F991FAA1FBB1FEA95D1F7861B970B62
:10022000885E9340C8F221503040404050406851B1
:100230007C4F211531054105510571F608957894DB
:1002400084B5826084BD84B5816084BD85B58260DB
:1002500085BD85B5816085BDEEE6F0E08081816079
:100260008083E1E8F0E01082808182608083808179
:1002700081608083E0E8F0E0808181608083E1EB51
:10028000F0E0808184608083E0EBF0E08081816039
:100290008083EAE7F0E080818460808380818260EF
:1002A00080838081816080838081806880831092D8
:1002B000C100089508951F920F920FB60F92112456
:1002C0002F933F934F938F939F93EF93FF9380913F
:1002D000C00082FD1DC04091C6002091590130919F
:1002E0005A012F5F3F4F2F73307080915B019091C7
:1002F0005C012817390771F0E0915901F0915A011A
:10030000E75EFE4F408330935A012093590102C0AB
:100310008091C600FF91EF919F918F914F913F91F6
:100320002F910F900FBE0F901F90189508951F9258
:100330000F920FB60F9211242F933F934F938F93E9
:100340009F93EF93FF938091C80082FD1DC0409161
:10035000CE002091E1013091E2012F5F3F4F2F73DA
:1003600030708091E3019091E4012817390771F012
:10037000E091E101F091E201EF55FE4F40833093AF
:10038000E2012093E10102C08091CE00FF91EF9144
:100390009F918F914F913F912F910F900FBE0F9092
:1003A0001F901895E0913502F0913602E05CFF4F06
:1003B0008191919120813181805C9F4F821B930BB1
:1003C00060E470E00E948704892B11F00E945A01BA
:1003D000E0915702F0915802E05CFF4F81919191BA
:1003E00020813181805C9F4F821B930B60E470E021
:1003F0000E948704892B11F00E94960108951F9294
:100400000F920FB60F9211242F933F938F939F93C8
:10041000EF93FF9320919D0130919E0180919F0168
:100420009091A0012817390731F48091C1008F7D88
:100430008093C10014C0E0919F01F091A001E35AA4
:10044000FE4F208180919F019091A00101968F73B2
:1004500090709093A00180939F012093C600FF911C
:10046000EF919F918F913F912F910F900FBE0F9021
:100470001F9018951F920F920FB60F9211242F9371
:100480003F938F939F93EF93FF9320912502309199
:10049000260280912702909128022817390731F40B
:1004A0008091C9008F7D8093C90014C0E09127021C
:1004B000F0912802EB51FE4F20818091270290910C
:1004C000280201968F7390709093280280932702E0
:1004D0002093CE00FF91EF919F918F913F912F91AB
:1004E0000F900FBE0F901F901895AF92BF92DF92A2
:1004F000EF92FF920F931F93CF93DF93EC017A015A
:100500008B01DD24403081EE580780E0680780E0F1
:10051000780711F0DD24D39491E0A92EB12CEC8959
:10052000FD89DD2069F0C50108A002C0880F991F70
:100530000A94E2F7808360E079E08DE390E005C003
:10054000108260E874E88EE190E0A80197010E94B3
:100550009A04215030404040504056954795379579
:10056000279580E12030380720F0DD2011F0DD24D0
:10057000D6CFE889F9893083EA89FB89208319A2DB
:10058000EE89FF89408121E030E0C9010C8C02C076
:10059000880F991F0A94E2F7482B4083EE89FF8960
:1005A0004081C9010D8C02C0880F991F0A94E2F79F
:1005B000482B4083EE89FF894081C9010E8C02C01F
:1005C000880F991F0A94E2F7482B4083EE89FF8930
:1005D00080810F8C02C0220F331F0A94E2F720950E
:1005E00028232083DF91CF911F910F91FF90EF90EF
:1005F000DF90BF90AF900895DC011C96ED91FC91C7
:100600001D97E05CFF4F8191919120813181805C49
:100610009F4F821B930B60E470E00E948704089553
:10062000DC011C96ED91FC911D97E05CFF4F208151
:100630003181E054F040DF01AE5BBF4F8D919C9162
:1006400011972817390719F42FEF3FEF07C08D9145
:100650009C91E80FF91F8081282F30E0C90108958F
:10066000DC011C96ED91FC911D97E05CFF4F208111
:100670003181E054F040DF01AE5BBF4F8D919C9122
:1006800011972817390719F42FEF3FEF10C08D91FC
:100690009C911197E80FF91F20818D919C911197E2
:1006A00001968F73907011969C938E9330E0C901E0
:1006B0000895DC0191968C919197882339F0549696
:1006C000ED91FC915597808186FFF9CF91961C9210
:1006D0000895CF93DF93EC01EE85FF85E05CFF4F3B
:1006E00020813181E054F0402F5F3F4F2F733070F5
:1006F000DF01AE5BBF4F8D919C9111972817390791
:10070000D1F3E05CFF4F80819181E054F040E80F2D
:10071000F91F6083EE85FF85E05CFF4F3183208306
:10072000EE89FF89208181E090E00F8C02C0880F64
:10073000991F0A94E2F7282B208381E089A3EC8992
:10074000FD8980818064808381E090E0DF91CF919A
:1007500008951F9310922C0210922B0228EE33E082
:1007600040E050E020932D0230932E0240932F0260
:100770005093300264E071E070932A026093290282
:1007800089E191E090933602809335028DE591E006
:10079000909338028093370285EC90E090933A0270
:1007A0008093390284EC90E090933C0280933B026A
:1007B00080EC90E090933E0280933D0281EC90E0CB
:1007C0009093400280933F0282EC90E0909342022B
:1007D0008093410286EC90E0909344028093430220
:1007E00014E010934502B3E0B0934602A7E0A09353
:1007F0004702F5E0F0934802E1E0E09349021092ED
:100800004E0210924D0220934F02309350024093BB
:1008100051025093520270934C0260934B0281EA52
:1008200091E0909358028093570285EE91E0909367
:100830005A02809359028DEC90E090935C02809371
:100840005B028CEC90E090935E0280935D0288ECFA
:1008500090E09093600280935F0289EC90E0909327
:100860006202809361028AEC90E09093640280932C
:1008700063028EEC90E09093660280936502109381
:100880006702B0936802A0936902F0936A02E09352
:100890006B021F910895CF92DF92EF92FF920F9318
:1008A0001F93CF93DF937C016B018A01C0E0D0E0FE
:1008B0000FC0D6016D916D01D701ED91FC910190B2
:1008C000F081E02DC7010995C80FD91F01501040D4
:1008D0000115110571F7CE01DF91CF911F910F9195
:1008E000FF90EF90DF90CF9008950895CF93DF931E
:1008F0000E941F010E9475040E946900C2EDD1E0B0
:100900000E9472002097E1F30E94D201F9CF97FB79
:10091000092E07260AD077FD04D02ED006D000205D
:100920001AF4709561957F4F0895F6F7909581952B
:100930009F4F0895A1E21A2EAA1BBB1BFD010DC0FB
:10094000AA1FBB1FEE1FFF1FA217B307E407F5077F
:1009500020F0A21BB30BE40BF50B661F771F881F5B
:10096000991F1A9469F760957095809590959B01F1
:10097000AC01BD01CF010895AA1BBB1B51E107C00B
:10098000AA1FBB1FA617B70710F0A61BB70B881F1F
:10099000991F5A95A9F780959095BC01CD010895AE
:1009A000EE0FFF1F0590F491E02D0994F894FFCF0E
:1009B0000000000069034B04FC02300310035903DC
:00000001FF
